{
  "contractName": "Store",
  "abi": [
    {
      "inputs": [],
      "stateMutability": "nonpayable",
      "type": "constructor"
    },
    {
      "inputs": [],
      "name": "OnlyOwner",
      "type": "error"
    },
    {
      "inputs": [],
      "name": "ShowAlreadyBought",
      "type": "error"
    },
    {
      "inputs": [
        {
          "internalType": "address",
          "name": "newOwner",
          "type": "address"
        }
      ],
      "name": "transferOwnership",
      "outputs": [],
      "stateMutability": "nonpayable",
      "type": "function"
    },
    {
      "inputs": [],
      "name": "getContractOwner",
      "outputs": [
        {
          "internalType": "address",
          "name": "",
          "type": "address"
        }
      ],
      "stateMutability": "view",
      "type": "function",
      "constant": true
    },
    {
      "inputs": [
        {
          "internalType": "bytes16",
          "name": "showId",
          "type": "bytes16"
        },
        {
          "internalType": "bytes32",
          "name": "proof",
          "type": "bytes32"
        }
      ],
      "name": "purchaseMovie",
      "outputs": [],
      "stateMutability": "payable",
      "type": "function",
      "payable": true
    },
    {
      "inputs": [],
      "name": "getOwnedShowCount",
      "outputs": [
        {
          "internalType": "uint256",
          "name": "",
          "type": "uint256"
        }
      ],
      "stateMutability": "view",
      "type": "function",
      "constant": true
    }
  ],
  "bytecode": "0x608060405234801561001057600080fd5b506100203361002560201b60201c565b610069565b80600160006101000a81548173ffffffffffffffffffffffffffffffffffffffff021916908373ffffffffffffffffffffffffffffffffffffffff16021790555050565b610719806100786000396000f3fe60806040526004361061003f5760003560e01c8063442890d5146100445780634d65cc831461006f5780637f4912451461009a578063f2fde38b146100b6575b600080fd5b34801561005057600080fd5b506100596100df565b6040516100669190610543565b60405180910390f35b34801561007b57600080fd5b50610084610109565b604051610091919061055e565b60405180910390f35b6100b460048036038101906100af919061048f565b610112565b005b3480156100c257600080fd5b506100dd60048036038101906100d89190610466565b6102fd565b005b6000600160009054906101000a900473ffffffffffffffffffffffffffffffffffffffff16905090565b60008054905090565b60008233604051602001610127929190610517565b60405160208183030381529060405280519060200120905061014881610375565b1561017f576040517f04bf9f4400000000000000000000000000000000000000000000000000000000815260040160405180910390fd5b6000806000815480929190610193906105eb565b9190505590508160026000838152602001908152602001600020819055506040518060a001604052808281526020013481526020018481526020013373ffffffffffffffffffffffffffffffffffffffff168152602001600080811115610223577f4e487b7100000000000000000000000000000000000000000000000000000000600052602160045260246000fd5b8152506003600084815260200190815260200160002060008201518160000155602082015181600101556040820151816002015560608201518160030160006101000a81548173ffffffffffffffffffffffffffffffffffffffff021916908373ffffffffffffffffffffffffffffffffffffffff16021790555060808201518160030160146101000a81548160ff021916908360008111156102ef577f4e487b7100000000000000000000000000000000000000000000000000000000600052602160045260246000fd5b021790555090505050505050565b6103056100df565b73ffffffffffffffffffffffffffffffffffffffff163373ffffffffffffffffffffffffffffffffffffffff1614610369576040517f5fc483c500000000000000000000000000000000000000000000000000000000815260040160405180910390fd5b610372816103e3565b50565b60003373ffffffffffffffffffffffffffffffffffffffff166003600084815260200190815260200160002060030160009054906101000a900473ffffffffffffffffffffffffffffffffffffffff1673ffffffffffffffffffffffffffffffffffffffff16149050919050565b80600160006101000a81548173ffffffffffffffffffffffffffffffffffffffff021916908373ffffffffffffffffffffffffffffffffffffffff16021790555050565b6000813590506104368161069e565b92915050565b60008135905061044b816106b5565b92915050565b600081359050610460816106cc565b92915050565b60006020828403121561047857600080fd5b600061048684828501610427565b91505092915050565b600080604083850312156104a257600080fd5b60006104b08582860161043c565b92505060206104c185828601610451565b9150509250929050565b6104d481610579565b82525050565b6104eb6104e682610579565b610634565b82525050565b6105026104fd8261058b565b610646565b82525050565b610511816105e1565b82525050565b600061052382856104f1565b60108201915061053382846104da565b6014820191508190509392505050565b600060208201905061055860008301846104cb565b92915050565b60006020820190506105736000830184610508565b92915050565b6000610584826105c1565b9050919050565b60007fffffffffffffffffffffffffffffffff0000000000000000000000000000000082169050919050565b6000819050919050565b600073ffffffffffffffffffffffffffffffffffffffff82169050919050565b6000819050919050565b60006105f6826105e1565b91507fffffffffffffffffffffffffffffffffffffffffffffffffffffffffffffffff82141561062957610628610662565b5b600182019050919050565b600061063f82610650565b9050919050565b6000819050919050565b600061065b82610691565b9050919050565b7f4e487b7100000000000000000000000000000000000000000000000000000000600052601160045260246000fd5b60008160601b9050919050565b6106a781610579565b81146106b257600080fd5b50565b6106be8161058b565b81146106c957600080fd5b50565b6106d5816105b7565b81146106e057600080fd5b5056fea26469706673582212205f44a5b3166bb3fedb162cde403ef7273cbdbb57a59a0508c7c2a2406c187c4d64736f6c63430008040033",
  "immutableReferences": {},
  "source": "// SPDX-License-Identifier: MIT\r\npragma solidity >=0.4.22 <0.9.0;\r\n\r\ncontract Store {\r\n    //Check whether the show is purchased\r\n    enum PurchaseState {\r\n        Purchased\r\n    }\r\n    struct Show {\r\n        uint256 id;\r\n        uint256 price;\r\n        bytes32 proof;\r\n        address owner;\r\n        PurchaseState state;\r\n    }\r\n    //Shows owned by an account\r\n    uint256 private totalOwnedShows;\r\n    //Owner address\r\n    address payable private owner;\r\n\r\n    mapping(uint256 => bytes32) private bookedShowHash;\r\n    mapping(bytes32 => Show) private bookedShows;\r\n\r\n    constructor() {\r\n        setContractOwner(msg.sender);\r\n    }\r\n\r\n    error OnlyOwner();\r\n    error ShowAlreadyBought();\r\n\r\n    function transferOwnership(address newOwner) external onlyOwner {\r\n        setContractOwner(newOwner);\r\n    }\r\n\r\n    function setContractOwner(address newOwner) private {\r\n        owner = payable(newOwner);\r\n    }\r\n\r\n    modifier onlyOwner() {\r\n        if (msg.sender != getContractOwner()) {\r\n            revert OnlyOwner();\r\n        }\r\n        _;\r\n    }\r\n\r\n    function getContractOwner() public view returns (address) {\r\n        return owner;\r\n    }\r\n\r\n    //Purchase movie\r\n\r\n    function purchaseMovie(bytes16 showId, bytes32 proof) external payable {\r\n        bytes32 showHash = keccak256(abi.encodePacked(showId, msg.sender));\r\n\r\n        if (movieOwned(showHash)) {\r\n            revert ShowAlreadyBought();\r\n        }\r\n\r\n        uint256 id = totalOwnedShows++;\r\n\r\n        bookedShowHash[id] = showHash;\r\n        bookedShows[showHash] = Show({\r\n            id: id,\r\n            price: msg.value,\r\n            proof: proof,\r\n            owner: msg.sender,\r\n            state: PurchaseState.Purchased\r\n        });\r\n    }\r\n\r\n    //Total owned show count\r\n    function getOwnedShowCount() external view returns (uint256) {\r\n        return totalOwnedShows;\r\n    }\r\n\r\n    //Check whether the show is already owned\r\n    function movieOwned(bytes32 showHash) private view returns (bool) {\r\n        return bookedShows[showHash].owner == msg.sender;\r\n    }\r\n}\r\n",
  "sourcePath": "C:\\Users\\animu\\Desktop\\Devfolio\\test\\threejs-meta\\contracts\\Store.sol",
  "compiler": {
    "name": "solc",
    "version": "0.8.4+commit.c7e474f2.Emscripten.clang"
  },
  "schemaVersion": "3.4.4",
  "updatedAt": "2022-03-27T03:00:56.503Z",
  "networkType": "ethereum",
  "devdoc": {
    "kind": "dev",
    "methods": {},
    "version": 1
  },
  "userdoc": {
    "kind": "user",
    "methods": {},
    "version": 1
  }
}