{
  "contractName": "Store",
  "abi": [
    {
      "inputs": [],
      "stateMutability": "nonpayable",
      "type": "constructor"
    },
    {
      "inputs": [],
      "name": "OnlyOwner",
      "type": "error"
    },
    {
      "inputs": [],
      "name": "ShowAlreadyBought",
      "type": "error"
    },
    {
      "stateMutability": "payable",
      "type": "receive",
      "payable": true
    },
    {
      "inputs": [
        {
          "internalType": "address",
          "name": "newOwner",
          "type": "address"
        }
      ],
      "name": "transferOwnership",
      "outputs": [],
      "stateMutability": "nonpayable",
      "type": "function"
    },
    {
      "inputs": [],
      "name": "getContractOwner",
      "outputs": [
        {
          "internalType": "address",
          "name": "",
          "type": "address"
        }
      ],
      "stateMutability": "view",
      "type": "function",
      "constant": true
    },
    {
      "inputs": [
        {
          "internalType": "bytes16",
          "name": "showId",
          "type": "bytes16"
        },
        {
          "internalType": "bytes32",
          "name": "proof",
          "type": "bytes32"
        }
      ],
      "name": "purchaseMovie",
      "outputs": [],
      "stateMutability": "payable",
      "type": "function",
      "payable": true
    },
    {
      "inputs": [],
      "name": "getOwnedShowCount",
      "outputs": [
        {
          "internalType": "uint256",
          "name": "",
          "type": "uint256"
        }
      ],
      "stateMutability": "view",
      "type": "function",
      "constant": true
    },
    {
      "inputs": [
        {
          "internalType": "bytes16",
          "name": "showId",
          "type": "bytes16"
        }
      ],
      "name": "checkOwnerShip",
      "outputs": [
        {
          "internalType": "bool",
          "name": "",
          "type": "bool"
        }
      ],
      "stateMutability": "view",
      "type": "function",
      "constant": true
    }
  ],
  "bytecode": "0x608060405234801561001057600080fd5b506100203361002560201b60201c565b610069565b80600160006101000a81548173ffffffffffffffffffffffffffffffffffffffff021916908373ffffffffffffffffffffffffffffffffffffffff16021790555050565b6108ec806100786000396000f3fe60806040526004361061004e5760003560e01c8063442890d51461005a5780634d65cc83146100855780637f491245146100b0578063eb005925146100cc578063f2fde38b1461010957610055565b3661005557005b600080fd5b34801561006657600080fd5b5061006f610132565b60405161007c9190610695565b60405180910390f35b34801561009157600080fd5b5061009a61015c565b6040516100a791906106eb565b60405180910390f35b6100ca60048036038101906100c591906105af565b610165565b005b3480156100d857600080fd5b506100f360048036038101906100ee9190610586565b610359565b60405161010091906106b0565b60405180910390f35b34801561011557600080fd5b50610130600480360381019061012b919061055d565b6103f4565b005b6000600160009054906101000a900473ffffffffffffffffffffffffffffffffffffffff16905090565b60008054905090565b6000823360405160200161017a929190610669565b60405160208183030381529060405280519060200120905061019b8161046c565b156101db576040517f08c379a00000000000000000000000000000000000000000000000000000000081526004016101d2906106cb565b60405180910390fd5b60008060008154809291906101ef90610795565b9190505590508160026000838152602001908152602001600020819055506040518060a001604052808281526020013481526020018481526020013373ffffffffffffffffffffffffffffffffffffffff16815260200160008081111561027f577f4e487b7100000000000000000000000000000000000000000000000000000000600052602160045260246000fd5b8152506003600084815260200190815260200160002060008201518160000155602082015181600101556040820151816002015560608201518160030160006101000a81548173ffffffffffffffffffffffffffffffffffffffff021916908373ffffffffffffffffffffffffffffffffffffffff16021790555060808201518160030160146101000a81548160ff0219169083600081111561034b577f4e487b7100000000000000000000000000000000000000000000000000000000600052602160045260246000fd5b021790555090505050505050565b600080823360405160200161036f929190610669565b6040516020818303038152906040528051906020012090503373ffffffffffffffffffffffffffffffffffffffff166003600083815260200190815260200160002060030160009054906101000a900473ffffffffffffffffffffffffffffffffffffffff1673ffffffffffffffffffffffffffffffffffffffff1614915050919050565b6103fc610132565b73ffffffffffffffffffffffffffffffffffffffff163373ffffffffffffffffffffffffffffffffffffffff1614610460576040517f5fc483c500000000000000000000000000000000000000000000000000000000815260040160405180910390fd5b610469816104da565b50565b60003373ffffffffffffffffffffffffffffffffffffffff166003600084815260200190815260200160002060030160009054906101000a900473ffffffffffffffffffffffffffffffffffffffff1673ffffffffffffffffffffffffffffffffffffffff16149050919050565b80600160006101000a81548173ffffffffffffffffffffffffffffffffffffffff021916908373ffffffffffffffffffffffffffffffffffffffff16021790555050565b60008135905061052d81610871565b92915050565b60008135905061054281610888565b92915050565b6000813590506105578161089f565b92915050565b60006020828403121561056f57600080fd5b600061057d8482850161051e565b91505092915050565b60006020828403121561059857600080fd5b60006105a684828501610533565b91505092915050565b600080604083850312156105c257600080fd5b60006105d085828601610533565b92505060206105e185828601610548565b9150509250929050565b6105f481610717565b82525050565b61060b61060682610717565b6107de565b82525050565b61061a81610729565b82525050565b61063161062c82610735565b6107f0565b82525050565b6000610644601383610706565b915061064f82610848565b602082019050919050565b6106638161078b565b82525050565b60006106758285610620565b60108201915061068582846105fa565b6014820191508190509392505050565b60006020820190506106aa60008301846105eb565b92915050565b60006020820190506106c56000830184610611565b92915050565b600060208201905081810360008301526106e481610637565b9050919050565b6000602082019050610700600083018461065a565b92915050565b600082825260208201905092915050565b60006107228261076b565b9050919050565b60008115159050919050565b60007fffffffffffffffffffffffffffffffff0000000000000000000000000000000082169050919050565b6000819050919050565b600073ffffffffffffffffffffffffffffffffffffffff82169050919050565b6000819050919050565b60006107a08261078b565b91507fffffffffffffffffffffffffffffffffffffffffffffffffffffffffffffffff8214156107d3576107d261080c565b5b600182019050919050565b60006107e9826107fa565b9050919050565b6000819050919050565b60006108058261083b565b9050919050565b7f4e487b7100000000000000000000000000000000000000000000000000000000600052601160045260246000fd5b60008160601b9050919050565b7f53686f7720616c7265616479206f776e65642100000000000000000000000000600082015250565b61087a81610717565b811461088557600080fd5b50565b61089181610735565b811461089c57600080fd5b50565b6108a881610761565b81146108b357600080fd5b5056fea2646970667358221220af2b1e17453a5db5dc65ddc44c49f0d1fbb23c2e3864dab668a103ff9e1a9d7f64736f6c63430008040033",
  "immutableReferences": {},
  "source": "// SPDX-License-Identifier: MIT\r\npragma solidity >=0.4.22 <0.9.0;\r\n\r\ncontract Store {\r\n    //Check whether the show is purchased\r\n    enum PurchaseState {\r\n        Purchased\r\n    }\r\n    struct Show {\r\n        uint256 id;\r\n        uint256 price;\r\n        bytes32 proof;\r\n        address owner;\r\n        PurchaseState state;\r\n    }\r\n    //Shows owned by an account\r\n    uint256 private totalOwnedShows;\r\n    //Owner address\r\n    address payable private owner;\r\n\r\n    mapping(uint256 => bytes32) private bookedShowHash;\r\n    mapping(bytes32 => Show) private bookedShows;\r\n\r\n    constructor() {\r\n        setContractOwner(msg.sender);\r\n    }\r\n\r\n    modifier onlyOwner() {\r\n        if (msg.sender != getContractOwner()) {\r\n            revert OnlyOwner();\r\n        }\r\n        _;\r\n    }\r\n\r\n    receive() external payable {}\r\n\r\n    error OnlyOwner();\r\n    error ShowAlreadyBought();\r\n\r\n    function transferOwnership(address newOwner) external onlyOwner {\r\n        setContractOwner(newOwner);\r\n    }\r\n\r\n    function setContractOwner(address newOwner) private {\r\n        owner = payable(newOwner);\r\n    }\r\n\r\n    function getContractOwner() public view returns (address) {\r\n        return owner;\r\n    }\r\n\r\n    //Purchase movie\r\n\r\n    function purchaseMovie(bytes16 showId, bytes32 proof) external payable {\r\n        bytes32 showHash = keccak256(abi.encodePacked(showId, msg.sender));\r\n\r\n        // if (movieOwned(showHash)) {\r\n        //     revert ShowAlreadyBought();\r\n        // }\r\n        require(!movieOwned(showHash), \"Show already owned!\");\r\n\r\n        uint256 id = totalOwnedShows++;\r\n\r\n        bookedShowHash[id] = showHash;\r\n        bookedShows[showHash] = Show({\r\n            id: id,\r\n            price: msg.value,\r\n            proof: proof,\r\n            owner: msg.sender,\r\n            state: PurchaseState.Purchased\r\n        });\r\n    }\r\n\r\n    //Total owned show count\r\n    function getOwnedShowCount() external view returns (uint256) {\r\n        return totalOwnedShows;\r\n    }\r\n\r\n    //Check whether the show is already owned\r\n    function movieOwned(bytes32 showHash) private view returns (bool) {\r\n        return bookedShows[showHash].owner == msg.sender;\r\n    }\r\n\r\n    //Checks show ownership\r\n    function checkOwnerShip(bytes16 showId) public view returns (bool) {\r\n        bytes32 showHash = keccak256(abi.encodePacked(showId, msg.sender));\r\n        return bookedShows[showHash].owner == msg.sender;\r\n    }\r\n}\r\n",
  "sourcePath": "C:\\Users\\animu\\Desktop\\Devfolio\\test\\threejs-meta\\contracts\\Store.sol",
  "compiler": {
    "name": "solc",
    "version": "0.8.4+commit.c7e474f2.Emscripten.clang"
  },
  "schemaVersion": "3.4.4",
  "updatedAt": "2022-03-27T14:05:09.078Z",
  "networkType": "ethereum",
  "devdoc": {
    "kind": "dev",
    "methods": {},
    "version": 1
  },
  "userdoc": {
    "kind": "user",
    "methods": {},
    "version": 1
  }
}